:020000040000FA
:10000000FE2F00308A000408840A8207003441343D
:1000100054342B344E3441344D34453454346F34DD
:1000200075347234473465346E3442346F346F340F
:10003000733474340034413454342B3450344934E0
:100040004E34313432343334343400344134543463
:100050002B3442344134553444343434003448343D
:080060006F346C34613400348C
:100E5E00F000700883120313990083160313981C75
:100E6E00392F3A2F342F0800F200452F72088400D4
:100E7E0001202F270130F1007108F207720884005B
:100E8E000120003A031D4C2F4D2F3D2F08003F30FF
:100E9E00831603138500063086001930990007303B
:100EAE00831203139F00243083160313980080309F
:100EBE0083120313980020303B270630F5001330C1
:100ECE00F400AD30F300F30B6A2FF40B6A2FF50B21
:100EDE006A2F712F01303B270630F5001330F400D6
:100EEE00AD30F300F30B792FF40B792FF50B792F2F
:100EFE00802F15303B270630F5001330F400AD304F
:100F0E00F300F30B882FF40B882FF50B882F8F2F00
:100F1E00831203130508F3007308F7003F30F30044
:100F2E007308F7053F30770603199E2F9F2FBC2FAE
:100F3E000D30F400FB30F300F30BA32FF40BA32FB3
:100F4E00A82F831203130508F3007308F7003F3030
:100F5E00F3007308F7053F3077060319B72FB82F44
:100F6E00BB2FF601F60ABC2FF6017603031DC02F28
:100F7E00C12F8F2FD42F41302F27F02F29303B2711
:100F8E00F02F43302F27F02F44302F27F02F4530EE
:100F9E002F27F02F46302F27F02F7708F300F4017C
:100FAE007408003A0319DC2FF02F73081F3A031947
:100FBE00D12F303A0319CE2F183A0319CB2F0C3AF2
:100FCE000319C82F063A0319C52F033A0319C22F66
:100FDE00F02F3F30831203130505F3003F307306E5
:100FEE00031DFA2FFB2FF02FF6018F2F0028830100
:020FFE004E2F74
:02400E00183F59
:00000001FF
